:020000040800F2
:10000000280500209D010008291600085714000843
:1000100025160008A9020008C51A00080000000003
:100020000000000000000000000000002D16000885
:10003000AD020008000000002B1600082F16000873
:10004000B7010008B7010008B7010008B7010008B0
:10005000B7010008B7010008B7010008B7010008A0
:10006000B7010008B7010008B7010008B701000890
:10007000B7010008B7010008B7010008B701000880
:10008000B7010008B7010008B7010008B701000870
:10009000B7010008B7010008B7010008B701000860
:1000A000B7010008B7010008B7010008B701000850
:1000B000B7010008B7010008B7010008B701000840
:1000C000B7010008B7010008B7010008B701000830
:1000D000B7010008B7010008B7010008B701000820
:1000E000B7010008B7010008B7010008B701000810
:1000F000B7010008B7010008B7010008B701000800
:10010000B7010008B7010008B7010008B7010008EF
:10011000B7010008B701000809170008B701000877
:10012000B7010008B7010008B7010008B7010008CF
:10013000B7010008B7010008B7010008B7010008BF
:10014000B7010008B7010008B7010008B7010008AF
:10015000B7010008B7010008B7010008B70100089F
:10016000B7010008B7010008B7010008B70100088F
:10017000B7010008B7010008B7010008000000003F
:10018000B7010008B7010008DFF80CD000F07AF8DA
:1001900000480047BD260008280500200648804783
:1001A00006480047FEE7FEE7FEE7FEE7FEE7FEE75C
:1001B000FEE7FEE7FEE7FEE7ED160008890100080E
:1001C0002DE9F05F0546002092469B46884606468C
:1001D000814640241BE0284641464746224600F01F
:1001E00041F853465A46C01A914110D31146184659
:1001F000224600F028F82D1A67EB01084F462246E8
:100200000120002100F01FF817EB00094E41201ECD
:10021000A4F10104DFDC484631462A464346BDE8E6
:10022000F09FD2B201E000F8012B491EFBD27047CB
:100230000022F6E710B513460A4604461946FFF7B2
:10024000F0FF204610BD202A04DB203A00FA02F11C
:10025000002070479140C2F1200320FA03F31943B4
:1002600090407047202A04DB203A21FA02F0002156
:10027000704721FA02F3D040C2F1200291400843B6
:1002800019467047064C074D06E0E06840F0010350
:1002900094E8070098471034AC42F6D3FFF778FF94
:1002A000843F0008A43F000800BFFEE77047704786
:1002B00070B504461D460023B5F5804F13D154F8A0
:1002C00022300C480340D1E9000640EA06108E684F
:1002D00040EA06208E8940EA06408E693043034397
:1002E00044F8223003E06FF0704044F82200002010
:1002F00070BD00000000F0CF10B503460022086872
:1003000053F8202012480240D1E901042043CC6870
:1003100020430C6920434C6920438C692043CC69FD
:1003200020430C6A20434C6A20438C6A2043CC6AE9
:100330002043CC6B20430C6B204302438868082881
:1003400001D142F04002086843F82020002010BD8F
:100350008000F0FF30B503460024501C53F82040C5
:1003600004F04044D1E9000540EA05108D6840EAF8
:1003700005208D8940EA0545088A401E45EA00555A
:10038000087D801E45EA00608D6928430443501CA7
:1003900043F82040002030BD00B587B0142102A8EA
:1003A000FFF746FF1B48006808B107B000BD0120F9
:1003B0001849086000BF002001901748006840F00D
:1003C0000100154908600846006800F0010001902E
:1003D00000BF00BF4FF68070029002200390002003
:1003E0000490032005900C20069002A90B4800F011
:1003F00019F84CF6B370029002200390002004908C
:10040000032005900C20069002A9054800F00AF888
:1004100000BFCAE708000020383802400010024040
:10042000000C0240F8B502460B46002500240020CF
:100430000021DCE0012606FA01F51E6806EA050443
:10044000AC4273D15E68012E08D05E68022E05D0E2
:100450005E68112E02D05E68122E13D190684F0094
:100460000326BE40B0434F00DE68BE40304390607C
:10047000506801268E40B0431E79C6F300168E40A8
:1004800030435060D0684F000326BE40B0434F0059
:100490009E68BE403043D0605E68022E02D05E6827
:1004A000122E13D1CF0802F1200656F827004E076E
:1004B000F70E0F26BE40B0434F07FF0E1E69BE4029
:1004C0003043CF0802F1200646F8270010684F009D
:1004D0000326BE40B0431E7906F003064F00BE401F
:1004E000304310605E6806F08056B6F1805F7DD1C3
:1004F00000BF00260096404E366846F480463E4FC8
:100500003E603E46366806F48046009600BF00BF57
:100510003A4E8F0856F827008E07370F0F26BE4039
:10052000B043374EB24202D1002624E05EE0354EA1
:10053000B24201D101261EE0334EB24201D1022661
:1005400019E0324EB24201D1032614E0304EB242DD
:1005500001D104260FE02F4EB24201D105260AE058
:100560002D4EB24201D1062605E02C4EB24201D1F9
:10057000072600E008268F073F0FBE4030431F4E7E
:100580008F0846F82700264E3068A0435E6806F4C0
:100590008036B6F5803F00D12043214E3060361DB5
:1005A0003068A0435E6806F40036B6F5003F00D11F
:1005B00020431B4E361D3060361D3068A0435E68F8
:1005C00006F48016B6F5801F00D12043144E08367D
:1005D0003060361D3068A0435E6806F40016B6F53C
:1005E000001F00D120430E4E0C363060491C1029EC
:1005F000FFF420AFF8BD0000443802400838014045
:10060000000002400004024000080240000C0240CA
:10061000001002400014024000180240001C02407A
:10062000003C01400AB1816101E00B048361704725
:10063000014800687047000010000020034800686F
:1006400003490978084401490860704710000020F8
:100650001800002010B50D48006840F400700B49E8
:1006600008600846006840F480600860084600683A
:1006700040F480700860032000F0A2F8002000F031
:1006800007F800F02BF8002010BD0000003C0240ED
:1006900070B504460E4800784FF47A71B1FBF0F063
:1006A0000C490968B1FBF0F5284600F052FC08B18E
:1006B000012070BD102C07D200222146501E00F0F0
:1006C00041F80548046001E00120F2E70020F0E76E
:1006D000180000201C0000201400002008B500BFF6
:1006E000002000900E48006840F480400C490860EB
:1006F0000846006800F48040009000BF00BF00BFC3
:1007000000200090081F006840F08050091F08601A
:100710000846006800F08050009000BF00BF08BD90
:100720004438024001460846002809DB00F01F0358
:1007300001229A4043099B0003F1E023C3F8002102
:1007400000BF70472DE9F05F80460D461646002732
:1007500001F0CAF9074639462A46334601F0070038
:10076000C0F1070ABAF1040F02D94FF0040A01E000
:10077000C0F1070AD14600F1040ABAF1070F02D20C
:100780004FF0000A01E0A0F1030AD4464FF0010A3D
:100790000AFA09FAAAF1010A0AEA020A0AFA0CFAA2
:1007A0004FF0010B0BFA0CFBABF1010B0BEA030B47
:1007B0004AEA0B042146404601F09EF9BDE8F09F4D
:1007C00000BF00F00702064B19684FF6FF031940FF
:1007D000044B0B4343EA0221014B196000BF7047F1
:1007E0000CED00E00000FA0570B504460D460CB9AA
:1007F000012070BD5848006800F00F00A84209D2DF
:1008000055490D700846006800F00F00A84201D05D
:100810000120EEE7207800F0020002281DD12078A8
:1008200000F00400042805D14C48006840F4E05072
:100830004A490860207800F00800082805D1474898
:10084000006840F46040454908604448006820F072
:10085000F000A168084341490860207800F00100D9
:10086000A8B36068012807D13C4808380068C0F385
:100870004040B8B90120BCE76068022802D0606837
:10088000032807D1354808380068C0F3406048B9EC
:100890000120AEE7314808380068C0F3400008B9CD
:1008A0000120A6E72D48006820F003006168084396
:1008B0002A490860FFF7BCFE064609E0FFF7B8FECC
:1008C000801B41F28831884202D9032091E707E07A
:1008D0002248006800F00C006168B0EB810FEDD198
:1008E0001D48006800F00F00A84209D91A490D7090
:1008F0000846006800F00F00A84201D0012078E708
:10090000207800F00400042807D11448006820F47F
:10091000E050E168084311490860207800F00800C1
:10092000082808D10D48006820F46040216940EA99
:10093000C1000A49086000F03FF808490968C1F39E
:100940000311074A515CC840064908600648006820
:10095000FFF79EFE00204CE7003C024008380240B2
:100960006C3F00081C0000201400002001480068B3
:10097000704700001C00002000B5FFF7F7FF044996
:100980000968C1F38221034A515CC84000BD0000E0
:10099000083802407C3F000800B5FFF7E7FF044934
:1009A0000968C1F34231034A515CC84000BD0000F0
:1009B000083802407C3F00082DE9F047002400255C
:1009C0000026A1462548006800F00C0020B104284C
:1009D00005D008283AD105E0DFF8849039E0DFF847
:1009E000849036E01D48001F006800F03F041B485B
:1009F000001F006800F4800078B11A481749091FE9
:100A00000968C1F38811A0FB01700146224600234A
:100A10003846FFF7D5FB05460EE011480F49091F80
:100A20000968C1F38811A0FB01700146224600232A
:100A30003846FFF7C5FB05460848001F0068C0F3AD
:100A40000140401C4600B5FBF6F902E0DFF81090CB
:100A500000BF00BF4846BDE8F087000008380240EC
:100A60000024F40040787D01F8B504460CB901205B
:100A7000F8BD207800F00100002874D0F948006823
:100A800000F00C0004280DD0F648006800F00C00BF
:100A9000082813D1F348001F006800F48000B0F567
:100AA000800F0BD1EF4808380068C0F340400028A1
:100AB00059D06068002856D10120D9E700BF60688E
:100AC000B0F5803F08D1E7480838006840F480302E
:100AD000E449083908601EE06068B0F5A02F0DD128
:100AE000E0480838006840F48020DE490839086092
:100AF0000846006840F4803008600CE0D9480838A7
:100B0000006820F48030D74908390860084600683A
:100B100020F48020086000BF606890B1FFF788FD76
:100B2000054606E0FFF784FD401B642801D9032039
:100B30009EE7CC4808380068C0F340400028F1D058
:100B400011E0FFF775FD054606E0FFF771FD401B5C
:100B5000642801D903208BE7C24808380068C0F335
:100B600040400028F1D1207800F0020002285FD137
:100B7000BC48006800F00C0058B1BA48006800F0AA
:100B80000C0008281CD1B748001F006800F4800042
:100B9000B0B9B44808380068C0F3400020B1E0683C
:100BA000012801D0012063E7AE480838006820F032
:100BB000F800216940EAC100AA490839086037E015
:100BC000E06800B30120A8490860FFF731FD054641
:100BD00006E0FFF72DFD401B022801D9032047E75F
:100BE000A04808380068C0F340000028F1D09D48B4
:100BF0000838006820F0F800216940EAC1009949EE
:100C00000839086014E0002097490860FFF710FDDC
:100C1000054606E0FFF70CFD401B022801D9032022
:100C200026E7904808380068C0F340000028F1D15A
:100C3000207800F0080008282CD16069A8B10120B4
:100C40008A490860FFF7F4FC054606E0FFF7F0FC70
:100C5000401B022801D903200AE782486C30006853
:100C6000C0F340000028F1D014E000207F49086064
:100C7000FFF7DEFC054606E0FFF7DAFC401B022822
:100C800001D90320F4E677486C300068C0F34000D7
:100C90000028F1D1207800F00400042870D100274A
:100CA00070483830006800F0805090B900BF0020D4
:100CB00000906C483830006840F080506949383105
:100CC00008600846006800F08050009000BF00BF38
:100CD00001276748006800F48070B0B96448006874
:100CE00040F4807062490860FFF7A2FC054606E008
:100CF000FFF79EFC401B022801D90320B8E65C48A0
:100D0000006800F480700028F2D000BFA0680128BD
:100D100008D154486830006840F0010051496831FA
:100D200008601DE0A06805280DD14E4868300068B5
:100D300040F004004B49683108600846006840F004
:100D4000010008600CE047486830006820F00100AE
:100D50004449683108600846006820F004000860D3
:100D600000BFA068A8B1FFF763FC054609E0FFF7E4
:100D70005FFC401B41F28831884202D9032077E6AC
:100D800026E0384868300068C0F340000028EED004
:100D900013E0FFF74DFC054608E0FFF749FC401B58
:100DA00041F28831884201D9032061E62D4868303C
:100DB0000068C0F340000028EFD1012F07D1294877
:100DC0003830006820F0805026493831086000BF74
:100DD000A069002845D02348006800F00C000828CE
:100DE0005DD0A069022845D100201F490866FFF7A1
:100DF0001FFC054606E0FFF71BFC401B022801D93B
:100E0000032035E6174808380068C0F34060002822
:100E1000F1D1D4E907010843616A40EA8111012256
:100E2000A06AC2EB500041EA00412C20005D41EA7B
:100E300000600C49091F086001200B490866FFF794
:100E4000F7FB054606E0FFF7F3FB401B022801D93C
:100E500003200DE6034808380068C0F3406000280E
:100E6000F1D03FE00838024000004742800E474280
:100E70000070004000201C490866FFF7D9FB0546BA
:100E800006E0FFF7D5FB401B022801D90320EFE560
:100E900016480068C0F340600028F2D122E0A06943
:100EA000012800D1E4E51148001D066806F4800120
:100EB000E069814214D106F03F01206A81420FD1DE
:100EC00047F6C0703040616A884209D106F440316B
:100ED000A06A814204D106F07061E06A814201D0CB
:100EE0000120C5E50020C3E500004742003802406C
:100EF00070B504460E4615460CB9012070BD94F835
:100F0000490028B9002084F84800204600F01CF869
:100F100004F108012068FFF7EFF93146A268206864
:100F2000FFF718FA2946236BD4E90102FFF7C0F94D
:100F3000A168206850F8210040F00100A2682168F3
:100F400041F822000020D9E710B50446FFF724FA43
:100F500010BD70B504462546681EB0F1807F01D3F0
:100F600001200FE0681E4FF0E02148610F214FF093
:100F7000FF3000F0C1FD00204FF0E0218861072024
:100F80000861002070BD70477047000030B5024610
:100F90000B4600BF92F83C00012801D1022030BD71
:100FA000012082F83C0000BF022082F83D0010685A
:100FB00044681068816824F070041868044310685D
:100FC0004460184D1068A8421BD01068B0F1804FE3
:100FD00017D0154D1068A84213D0144D1068A842C0
:100FE0000FD0134D1068A8420BD0124D1068A842C4
:100FF00007D0114D1068A84203D0104D1068A842C8
:1010000005D121F0800158680143106881600120FA
:1010100082F83D0000BF002082F83C0000BF00BF06
:10102000BDE700000000014000040040000800404F
:10103000000C004000040140004001400018004046
:1010400010B504460CB9012010BD94F83D0028B934
:10105000002084F83C00204600F00CF8022084F8C0
:101060003D00211D206800F057FB012084F83D0061
:101070000020E9E738B504460E492068884217D1B8
:1010800000BF002000900C48006840F010000A49A2
:1010900008600846006800F01000009000BF00BF24
:1010A000002211463620FFF74DFB3620FFF73AFBB2
:1010B00038BD00000010004040380240014608687A
:1010C000C06840F001000B68D8600868806800F0D4
:1010D0000702062A05D00868006840F001000B6886
:1010E000186000207047704710B5044620680069FA
:1010F000C0F34000D8B12068C068C0F34000B0B170
:101100006FF0020021680861012020772068806963
:1011100000F0030018B12046FFF7E5FF05E0204688
:1011200000F0ADF8204600F0ABF8002020772068F2
:101130000069C0F38000D8B12068C068C0F38000A7
:10114000B0B16FF0040021680861022020772068A8
:10115000806900F4407018B12046FFF7C4FF05E035
:10116000204600F08CF8204600F08AF80020207716
:1011700020680069C0F3C000D8B12068C068C0F31F
:10118000C000B0B16FF0080021680861042020772A
:101190002068C06900F0030018B12046FFF7A3FFE4
:1011A00005E0204600F06BF8204600F069F80020CA
:1011B000207720680069C0F30010D8B12068C068AB
:1011C000C0F30010B0B16FF0100021680861082072
:1011D00020772068C06900F4407018B12046FFF7FE
:1011E00082FF05E0204600F04AF8204600F048F86B
:1011F000002020772068006900F0010058B12068C5
:10120000C06800F0010030B16FF001002168086192
:10121000204600F037F820680069C0F3C01058B1CC
:101220002068C068C0F3C01030B16FF08000216842
:1012300008612046FFF7A7FE20680069C0F3801010
:1012400058B12068C068C0F3801030B16FF0400022
:1012500021680861204600F021F820680069C0F389
:10126000401058B12068C068C0F3401030B16FF032
:101270002000216808612046FFF786FE10BD7047F8
:10128000704700000349884202D10121024A1160DF
:1012900070470000A400002004000020704710B533
:1012A00004460CB9012010BD94F83D0028B9002077
:1012B00084F83C00204600F01FF8022084F83D002E
:1012C000204600F095FA2068006920F480402168EB
:1012D00008612068406920F02A0021684861206880
:1012E000C06840F400502168C860002020640120DC
:1012F00084F83D000020D6E710B586B004461421DE
:1013000001A8FEF795FF1B492068884230D100BF35
:10131000002000901848006840F01000164908604E
:101320000846006800F01000009000BF00BF00BF3A
:101330000020009010481438006840F001000E4969
:10134000143908600846006800F00100009000BFF2
:1013500000BF4FF4E0600190022002900020039053
:10136000032004900720059001A90448FFF75AF8CC
:1013700006B010BD00100140443802400000024099
:101380002DE9F84304460D4616461F464FF0000966
:1013900094F83D0001285CD105B116B90120BDE8E3
:1013A000F88300BF94F83C00012801D10220F6E741
:1013B000012084F83C0000BF00202064122084F843
:1013C0003D00FFF735F98146268566852BE0608D67
:1013D000401E6085A068B0F5805F16D14B460022A4
:1013E00080212046009700F02DFB08B10320D6E7AE
:1013F000A846B8F80000C0F30800216848602069DA
:1014000008B9AD1C0FE06D1C0DE04B460022802199
:101410002046009700F016FB08B10320BFE715F83F
:10142000010B21684860608D0028D0D14B46002216
:1014300040212046009700F005FB08B10320AEE7ED
:10144000012084F83D0000BF002084F83C0000BF6C
:10145000A5E70220A3E700BFFEE7000000B58FB0BC
:101460001C2108A8FEF7E4FE1C2101A8FEF7E0FEFF
:101470004FF020401B4908601B48486000208860EE
:1014800000211848C160016141618161C16101624F
:1014900041624FF4805181620021C1624FF480416A
:1014A00001630021416381634164082008900020AA
:1014B000099008200A9000200B900E9008200190BF
:1014C000002002900820039000200490079001AAB9
:1014D00008A90448FFF70CFD08B1FEF7E8FE0FB0BD
:1014E00000BD000054000020040100A000B587B03A
:1014F000142102A8FEF79CFE00BF002001902648A0
:10150000006840F08000244908600846006800F048
:101510008000019000BF00BF00BF0020019008467E
:10152000006840F0100008600846006800F01000F5
:10153000019000BF00BF00BF002001900846006876
:1015400040F0080008600846006800F008000190BC
:1015500000BF00BF00BF002001900846006840F0B7
:10156000010008600846006800F00100019000BF1B
:1015700000BF002208210948FFF754F80820029014
:101580000120039000200490059002A90348FEF773
:1015900049FF07B000BD000030380240000C024097
:1015A0001CB50020009001900E480F49086044F2DD
:1015B000A010486000210C48816042F21071C160A7
:1015C00000218161FFF73CFD08B1FEF770FE0020AD
:1015D0000090019069460448FFF7D8FC08B1FEF777
:1015E00066FE1CBD00100040A400002010B50B4892
:1015F0000B4908604FF4E1304860002108488160E1
:10160000C16001610C21416100218161C161016200
:10161000FFF745FE08B1FEF74AFE10BD001001407D
:10162000E400002000BFFEE770477047704710B528
:10163000FFF704F810BD000000B593B0302107A8F3
:10164000FEF7F6FD142102A8FEF7F2FD00BF002010
:1016500001902448006840F0805022490860084604
:10166000006800F08050019000BF00BF00BF002064
:1016700001901D48006840F480401B4908600846FE
:10168000006800F48040019000BF00BF0120079077
:101690000004089002200D9041050E9119210F9130
:1016A0004FF4A8711091022111910421129107A801
:1016B000FFF7DAF908B1FEF7FAFD0F2002900220D9
:1016C0000390002004904FF4A05005904FF48050F8
:1016D0000690052102A8FFF787F808B1FEF7E7FD9D
:1016E00013B000BD4038024000700040054800685B
:1016F00040F47000034908604FF0006001498039F0
:101700000860704788ED00E010B50248FFF7ECFC78
:1017100010BD0000A400002010B50268294B9842BB
:101720000ED0B0F1804F0BD0274B984208D0274BFA
:10173000984205D0264B984202D0264B984203D1BE
:1017400022F070024B681A431E4B984220D0B0F131
:10175000804F1DD01C4B98421AD01C4B984217D07A
:101760001B4B984214D01B4B984211D01A4B9842F5
:101770000ED01A4B98420BD0194B984208D0194BF7
:10178000984205D0184B984202D0184B984203D18A
:1017900022F44072CB681A4322F080034C6943EA7A
:1017A000040202608B68C3620B688362054B984237
:1017B00002D0084B984201D10B69036301234361B6
:1017C00010BD00000000014000040040000800407F
:1017D000000C004000040140004001400044014072
:1017E0000048014000180040001C0040002000405C
:1017F0002DE9FC5F044600262068C06820F00C003C
:101800002168C8602068066926F47C56A06940F407
:101810000060E1690843216A0843E1680843064320
:10182000206806612068C66849F20C608643216919
:10183000A06808436169084340F4004006432068FB
:10184000C6602068406920F44070216848617B4987
:101850002068884203D07A492068884274D1FFF713
:101860009BF8054602206168A0FB01911920A5FBA9
:10187000007080464A460B4638464146FEF7A0FCBB
:101880006421B0FBF1F04FEA001902206168A0FB6F
:10189000017003461920A5FB00A001463A465046B8
:1018A000FEF78EFC824602206168A0FB01700346B1
:1018B0001920A5FB00B001463A465846FEF780FCC9
:1018C0006421B0FBF1F000EBC00101EB0010AAEBCA
:1018D0008000322101EBC0006421B0FBF1F000F088
:1018E000F80009EB400902206168A0FB0171192092
:1018F000A5FB00A083463A460B4650465946FEF7E4
:101900005FFC824602206168A0FB01710B46192032
:10191000A5FB00B13A465846FEF752FC6421B0FBE5
:10192000F1F000EBC00101EB0010AAEB80003221C6
:1019300001EBC0006421B0FBF1F000F00700484467
:101940002168886077E0FFE7FFF716F80546022078
:101950006168A0FB01911920A5FB007080464A46F2
:101960000B4638464146FEF72BFC6421B0FBF1F0F4
:101970004FEA001902206168A0FB01A0034619206C
:10198000A5FB0070014652463846FEF719FC824618
:1019900002206168A0FB01711920A5FB00B08446FC
:1019A0003A460B4658466146FEF70AFC6421B0FBF6
:1019B000F1F000EBC00101EB0010AAEB8000322136
:1019C00001EBC0006421B0FBF1F000F0F80009EB7E
:1019D000400B02206168A0FB01911920A5FB00705B
:1019E00080464A460B4638464146FEF7E9FB8146AB
:1019F00002206168A0FB01710B461920A5FB0010B5
:101A00003A46CDE9001008460199FEF7D9FB64215A
:101A1000B0FBF1F000EBC00101EB0010A9EB80007E
:101A2000322101EBC0006421B0FBF1F000F00700AF
:101A3000584421688860BDE8FC9F00000010014008
:101A4000001401402DE9F04104460D461746984622
:101A5000069E2BE0701C48B32EB1FEF7E9FDA0EB0B
:101A60000800B04222D92068C06820F080002168B8
:101A7000C8602068C06820F020002168C860206825
:101A8000C06820F480702168C8602068406920F038
:101A9000010021684861012084F83D0000BF00205A
:101AA00084F83C0000BF0320BDE8F0812068006896
:101AB0002840A84201D1012000E00020B842C9D04E
:101AC0000020F1E700BFFEE70FB4054B10B503A9F6
:101AD000044A029800F034F810BC5DF814FB0000D2
:101AE0003D2400082000002002480068C0F30220C6
:101AF000704700000CED00E010B5002804DB0A0779
:101B0000130E054A135406E00A07140E034A00F0A8
:101B10000F031B1FD45410BD00E400E018ED00E0DB
:101B200002E008C8121F08C1002AFAD170477047A6
:101B3000002001E001C1121F002AFBD17047000004
:101B40002DE9FF4F8DB09B460F460446002606E068
:101B500025280BD05A460F999047641C761C207894
:101B60000028F5D111B03046BDE8F08F0025A84619
:101B70000122984900E0054314F8013F203B02FA96
:101B800003F00842F7D120782E2817D114F8010F5E
:101B900045F004052A280ED06FF02F022078A0F11E
:101BA000300109290AD808EB880102EB410100EB5A
:101BB0000108641CF2E757F8048B641C20786C2839
:101BC0000DD004DC4C2812D06A2811D104E074280E
:101BD0000DD07A280CD10AE045F4001507E06178B1
:101BE00045F48015814202D1641C05F58015641C02
:101BF0002278692A45D008DC002AB3D0582A69D057
:101C0000632A10D0642A08D13BE0702A67D0732A77
:101C100013D0752A5CD0782A5CD010465A460F99AA
:101C20009047761CD3E017F8040B8DF800000020D5
:101C30008DF80100E946012003E057F8049B4FF0BE
:101C4000FF3069074FF0000501D40AE06D1C4545DF
:101C50000DDA8542FADB19F805100029F6D106E005
:101C60006D1C8542FCDB19F805100029F8D12E44C3
:101C700004E019F8010B5A460F9990476D1EF8D2EF
:101C8000A5E00A200021CDE90801C5F30250022891
:101C90000DD001CFC117031E71F100030DDA4FF013
:101CA000000CD0EB0C006CEB01012D2308E0FF1DB4
:101CB00027F00707F7E80201EDE72B0504D52B23F2
:101CC0008DF8283001233BE0EB0739D02023F7E7DC
:101CD0000A2000E010200021CDE9080107E01020D3
:101CE000002145F00405CDE908014FF00808C5F3CF
:101CF000025002280FD001CF00214FF0000A2B071D
:101D00001FD5702A0DD0DDE908C38CF0100C5CEAF9
:101D1000030C0CD015E0FF1D27F00707F7E80201C0
:101D2000EBE740228DF828204FF0010A0BE050EA43
:101D3000010306D030238DF828308DF829200223A6
:101D40009A46582A04D024A20DF120090B9209E0EA
:101D500026A2F9E7DDE90823FEF732FA0B9B9B5C2C
:101D600009F8013D50EA0102F4D1ADEB0900203041
:101D70000890680701D44FF001080899884502DDF2
:101D8000A8EB010000E000208046002506E00AA83C
:101D90005A46405D0F9990476D1C761C5545F6DB01
:101DA00004E030205A460F999047761CB8F10001A4
:101DB000A8F10108F5DC05E019F8010B5A460F9966
:101DC0009047761C0899481E08900029F4DC641C92
:101DD000C5E600000928010030313233343536378A
:101DE0003839616263646566000000003031323367
:101DF0003435363738394142434445460000000007
:101E00004FF0E021096921F004014FF0E022116157
:101E1000C21700EB5272C2F3C702054B1A704FF49F
:101E20007A714143C1F3CF01024A1180704700002B
:101E3000000000200200002070B504464FF4077037
:101E400094FBF0F0C6B24FF4077094FBF0F100FB86
:101E5000114085B205E04FF4077000F009F8701EDC
:101E6000C6B2002EF7D115B1284600F001F870BDBA
:101E700001460D4A12884A434FF0E0235A6100227E
:101E80009A6101221A6100BF4FF0E022106900F050
:101E900001021AB100F48032002AF5D000224FF07E
:101EA000E0231A619A6170470200002070B5054670
:101EB0000B4880880A49C98800FB01F600240848BD
:101EC000C38882880021084600F04AF900BF03E079
:101ED000284600F031FA641CB442F9D370BD00000A
:101EE000240000202DE9F04706460F4690469A460A
:101EF000002445460320A0EB480944E07A1B91B238
:101F0000321990B2524600F098F83A1B91B2721909
:101F100090B2524600F091F83A1991B2721990B20B
:101F2000524600F08AF87A1991B2321990B25246AC
:101F300000F083F87A1991B2321B90B2524600F049
:101F40007CF83A1991B2721B90B2524600F075F8C3
:101F50007A1B91B2321B90B2524600F06EF83A1BD7
:101F600091B2721B90B2524600F067F8641CB9F14E
:101F7000000F03DAA000801D814404E0601B800094
:101F80000A3081446D1EAC42B8DDBDE8F0872DE912
:101F9000FF4F85B081468A4600200390834607980C
:101FA000A0EB09050898A0EB0A06CDF80890CDF83B
:101FB00004A0002D01DD012705E00DB9002702E096
:101FC0004FF0FF376D42002E02DD4FF0010806E0B2
:101FD00016B94FF0000802E04FF0FF387642B542E4
:101FE00001DD2C4600E03446002004901EE0019AFA
:101FF00091B2029A90B2129A00F01FF80398284406
:102000000390B3440398A04205DD0398001B03909E
:10201000029838440290A34504DDABEB040B019811
:10202000404401900498401C80B20490611C0498C4
:102030008842DCDD09B0BDE8F08F70B505460E467C
:1020400014463146284600F073F8204600F074F933
:1020500070BD2DE9F84305460E4617469846089C84
:1020600033463A46314628460094FFF790FF4346F0
:102070002A46314628460094FFF789FF43463A46F0
:10208000414628460094FFF782FF43463A463146D0
:1020900038460094FFF77BFFBDE8F8832DE9F05F39
:1020A00006460F4614461D46A01B00F10109E81B19
:1020B00000F1010A09FB0AFB4FF00008681E83B219
:1020C000601E82B23946304600F04AF800BF04E094
:1020D0000A9800F031F908F10108D845F8D3BDE8B5
:1020E000F09F000010B500201049887200F0B4F98C
:1020F00049F28141884214D10C4800F027F90B487D
:10210000807A38B1094800880849C8800846408864
:10211000888006E0054840880449C8800846008851
:1021200088800020FFF7C2FE10BD000024000020C0
:1021300070B504460D460948807A40B10749498880
:10214000091B88B205498A692946904704E003487B
:10215000214682692846904770BD00002400002077
:102160002DE9F04104460E4615461F460D48807A7B
:1021700070B10C494988091B8AB20A494988491B30
:1021800088B208493B46D1F814C03146E04707E021
:1021900004482B463A462146D0F814C03046E04762
:1021A000BDE8F081240000202DE9F84F80460E465E
:1021B00017461C46B3462046E31704EB5373DB1067
:1021C00021464FEAE47C04EB5C7C4FEAEC0CA4EB88
:1021D000CC0CBCF1000F02D04FF0010C01E04FF02D
:1021E000000C6344224604EBD27C4FEA6C0C03FBE8
:1021F0000CF3DBB20093A7F1200087B2002554E076
:102200000C2C07D107EB47002A4901EB800010F89E
:10221000059013E0102C05D1274800EB071010F8AB
:1022200005900BE0182C07D107EBC700234901EB01
:10223000800010F8059001E0BDE8F88F4FF0000A2B
:102240002DE009F0800028B1314640460B9AFFF797
:10225000F4FE06E00A9820B1314640460C9AFFF79A
:10226000ECFE4FEA49604FEA1069701C86B21448D0
:102270004088B04200DCDFE7A6EB0B00A0420AD1A9
:102280005E4608F101001FFA80F80D4800884045BD
:1022900000DCD1E706E00AF1010000F0FF0ABAF124
:1022A000080FCEDB00BF681CC5B200988542A7DBD3
:1022B00000BFC1E7AC270008202C0008103200083E
:1022C000240000202DE9FE4F04460D469046994615
:1022D000DDE90D7A0C9E04F0FF0B08EB04001FFAF9
:1022E00080F809EB05001FFA80F91AE0444502DB8B
:1022F0005C46A81985B24D4500DB18E04FF6FF702B
:102300000021CDE9001A02903A783346294620464A
:10231000FFF74AFF304606EBD07104EB61018CB247
:102320007F1C38787E2802DC38782028DEDA00BF6F
:10233000BDE8FE8F7047000010B504460248816A70
:102340002046884710BD00002400002010B5044638
:10235000204600F0B3F800F0DBF810BD08B50348E4
:1023600000780090BDF8000008BD0000000001608A
:1023700010B503460C462A2000F05AF8181200F057
:102380004BF8D8B200F048F8181200F045F8D8B26F
:1023900000F042F82B2000F04BF8201200F03CF83F
:1023A000E0B200F039F8201200F036F8E0B200F0A8
:1023B00033F82C2000F03CF810BD70B504460D46F3
:1023C00016462A2000F034F8201200F025F8E0B27A
:1023D00000F022F8301200F01FF8F0B200F01CF804
:1023E0002B2000F025F8281200F016F8E8B200F0D3
:1023F00013F8181200F010F8D8B200F00DF82C20E5
:1024000000F016F870BD00000112024A1170107041
:102410007047000000000160014A10707047000022
:10242000000001602C20014908707047FFFF006028
:10243000014A107070470000FFFF006013B50C46A2
:102440004FF47A73012269460248FEF799FF00981B
:102450001CBD0000E400002010B50024B920114983
:102460000870FF20491C08708320087069200870DC
:10247000BF20491E0870481C04780478047804784A
:102480004FF6FF7000EA0424481C007804432146FC
:1024900005A0FFF719FB034906A0FFF715FB20462F
:1024A00010BD0000FFFF00604C43442049443A2522
:1024B000580000004144443A257800004FF4F07180
:1024C00001804FF4A07141802A22C2812B22028216
:1024D0002C218181074A4261074A8261074A0262D0
:1024E000074A4262074AC262074A8262074AC261D9
:1024F00070470000BB230008712300083124000846
:10250000192400085D230008092400082524000878
:1025100010B50120FFF78CFFDC20FFF78DFC1120A8
:10252000FFF786FF4FF48C70FFF786FCD020FFF793
:102530007FFF0720FFF770FF4420FFF76DFF1E208D
:10254000FFF76AFFDC20FFF777FCD120FFF770FF71
:102550000020FFF761FF0C20FFF75EFF1A20FFF756
:102560005BFFC520FFF764FF0320FFF755FFD22074
:10257000FFF75EFF0120FFF74FFF1120FFF74CFF31
:10258000E420FFF755FFA020FFF746FFF320FFF7F9
:102590004FFF0020FFF740FF2A20FFF73DFFC82034
:1025A000FFF746FF0020FFF737FF2620FFF734FF35
:1025B0002120FFF731FF0020FFF72EFF0020FFF75B
:1025C0002BFF1F20FFF728FF6520FFF725FF2320A3
:1025D000FFF722FF7720FFF71FFF0020FFF71CFF08
:1025E0000F20FFF719FF0020FFF716FFC020FFF7AD
:1025F0001FFF0020FFF710FF3B20FFF70DFF00201B
:10260000FFF70AFF0220FFF707FF1120FFF704FF83
:10261000C620FFF70DFF8320FFF7FEFEF020FFF737
:1026200007FF0120FFF7F8FEE420FFF701FFA020DD
:10263000FFF7F2FE3620FFF7FBFE8C20FFF7ECFEE3
:102640003A20FFF7F5FE5520FFF7E6FEB420FFF72E
:10265000EFFE0220FFF7E0FE0020FFF7DDFE002086
:10266000FFF7DAFE0120FFF7D7FE4FF48C70FFF77B
:10267000E3FB2A20FFF7DCFE0020FFF7CDFE002061
:10268000FFF7CAFE0120FFF7C7FE3F20FFF7C4FE99
:102690002B20FFF7CDFE0020FFF7BEFE0020FFF746
:1026A000BBFE0120FFF7B8FEDF20FFF7B5FE2920B3
:1026B000FFF7BEFE2C20FFF7BBFE10BD0EB5FDF7E9
:1026C000C9FFFEF7B9FFFEF711FFFEF7C7FEFEF7E1
:1026D0008DFFFEF765FFA820FFF792FB2D48FEF760
:1026E000EDFC012208212C48FDF79CFF3220FFF76A
:1026F000A3FB002208212848FDF794FF3220FFF7B2
:102700009BFB012208212448FDF78CFF3220FFF7B4
:1027100093FB22A0FFF7D8F9FFF7E4FC4FF47840D1
:10272000FFF7C4FB4FF4FC601EA118221346CDE94D
:1027300000210290642211463220FFF7C3FD4FF4BE
:10274000FC6332226421FA20FFF7CCFB4FF4FC60DB
:10275000C8231A46642100903220FFF77AFC4FF616
:10276000FF70C8231A46642100903220FFF70FFC47
:102770001F2064234FF49672322100900846FFF721
:102780008DFC4FF4FA70FFF757FBFFF7D3FD00BF46
:10279000FEE70000A4000020000C02407374617288
:1027A000740D0A0068656C6C6F000000000000008A
:1027B0000000000000000000000000003F4000009A
:1027C0000000000000003000400030004000000029
:1027D00009000BC03D000BC03D00090018C024409B
:1027E0007FE0224031800000180024C01B000D80D3
:1027F0003240018003801C4027401C80074000407D
:102800001000600000000000000000000000000058
:1028100000001F80204040200000402020401F80FA
:1028200000000000090006001F80060009000000EB
:10283000040004003F800400040000000010006059
:102840000000000000000000040004000400040078
:102850000400000000000040000000000000000034
:10286000002001C006003800400000001F8020400A
:10287000204020401F800000000010403FC000406A
:102880000000000018C021402240244018400000F1
:1028900010802040244024401B80000002000D00D6
:1028A00011003FC0014000003C80244024402440EF
:1028B000238000001F802440244034400380000017
:1028C0003000200027C03800200000001B8024407A
:1028D000244024401B8000001C0022C022402240D3
:1028E0001F80000000000000084000000000000001
:1028F0000000000004600000000000000000040070
:102900000A00110020804040090009000900090068
:102910000900000000004040208011000A0004006F
:102920001800200023402400180000001F802040D1
:10293000274029401F400000004007C039000F0019
:1029400001C0004020403FC0244024401B800000C4
:102950001F802040204020403080000020403FC0A9
:10296000204020401F80000020403FC024402E40D7
:1029700030C0000020403FC024402E003000000046
:102980000F001080204022403380020020403FC0D2
:10299000040004003FC02040204020403FC02040B1
:1029A000204000000060202020203FC020002000A8
:1029B00020403FC024400B0030C0204020403FC09A
:1029C00020400040004000C03FC03C0003C03C002D
:1029D0003FC0000020403FC00C4023003FC020000B
:1029E0001F802040204020401F80000020403FC02A
:1029F00024402400180000001F802140214020E0D6
:102A00001FA0000020403FC02440260019C0004005
:102A100018C0244024402240318000003000204073
:102A20003FC020403000000020003F8000400040B8
:102A30003F80200020003E0001C007003800200039
:102A4000380007C03C0007C038000000204039C0F3
:102A5000060039C0204000002000384007C0384040
:102A600020000000304021C02640384020C0000037
:102A7000000000007FE040204020000000007000C7
:102A80000C000380004000000000402040207FE058
:102A900000000000000020004000200000000000B6
:102AA00000100010001000100010001000000000C6
:102AB00040000000000000000000028005400540CA
:102AC00003C0004020003FC00440044003800000D9
:102AD0000000038004400440064000000000038022
:102AE000044024403FC000400000038005400540F2
:102AF00003400000000004401FC024402440200088
:102B0000000002E0055005500650042020403FC060
:102B10000440040003C000400000044027C00040FF
:102B20000000000000100010041027E0000000006A
:102B300020403FC00140070004C004402040204026
:102B40003FC000400040000007C0040007C0040070
:102B500003C00000044007C00440040003C000405C
:102B6000000003800440044003800000041007F0CC
:102B7000045004400380000000000380044004501F
:102B800007F00010044007C00240040004000000E9
:102B9000000006400540054004C00000000004009D
:102BA0001F800440004000000400078000400440F3
:102BB00007C000400400070004C0018006000400B4
:102BC000060001C0070001C006000000044006C066
:102BD000010006C0044000000410071004E001805A
:102BE000060004000000044005C006400440000048
:102BF0000000000004007BE0402000000000000016
:102C00000000FFF000000000000040207BE0040016
:102C10000000000040008000400020002000400034
:102C200000000000000000000000000000000000A4
:102C30000000000000001FCC000C0000000000009D
:102C40000000080030006000080030006000000054
:102C5000022003FC1E20022003FC1E200220000094
:102C600000000E1811043FFF10840C7800000000D3
:102C70000F0010840F3800C0077818840078000017
:102C800000780F8410C411240E9800E4008400081A
:102C90000800680070000000000000000000000054
:102CA00000000000000007E01818200440020000A7
:102CB000000040022004181807E000000000000097
:102CC0000240024001800FF00180024002400000FB
:102CD0000080008000800FF80080008000800000ED
:102CE0000001000D000E00000000000000000000C8
:102CF0000000008000800080008000800080008054
:102D00000000000C000C00000000000000000000AB
:102D10000000000600180060018006001800200076
:102D2000000007F0080810041004080807F000006D
:102D30000000080408041FFC000400040000000058
:102D400000000E0C10141024104411840E0C00000E
:102D500000000C1810041104110412880C700000FB
:102D6000000000E00320042408241FFC00240000CD
:102D700000001F98108411041104108810700000C6
:102D8000000007F008881104110418880070000082
:102D900000001C00100010FC13001C0010000000BC
:102DA00000000E3811441084108411440E380000C5
:102DB00000000700088C10441044088807F0000049
:102DC000000000000000030C030C000000000000E5
:102DD00000000000000101060000000000000000EB
:102DE00000000080014002200410080810040000C8
:102DF00002200220022002200220022002200000E5
:102E000000001004080804100220014000800000A7
:102E100000000E001200100C106C10800F0000005B
:102E200003E00C1813E4142417C4082807D000008A
:102E30000004003C03C41C40074000E4001C0004E4
:102E400010041FFC1104110411040E88007000000E
:102E500003E00C1810041004100410081C100000EB
:102E600010041FFC100410041004080807F00000F0
:102E700010041FFC1104110417C4100408180000EA
:102E800010041FFC1104110017C0100008000000FE
:102E900003E00C181004100410441C7800400000DB
:102EA00010041FFC10840080008010841FFC10049C
:102EB0000000100410041FFC1004100400000000A7
:102EC00000030001100110011FFE1000100000009F
:102ED00010041FFC110403801464181C100400006B
:102EE00010041FFC1004000400040004000C000087
:102EF00010041FFC1F0000FC1F001FFC100400003A
:102F000010041FFC0C04030000E010181FFC10004C
:102F100007F00808100410041004080807F0000067
:102F200010041FFC10841080108010800F0000001F
:102F300007F0081810241024101C080A07F20000DB
:102F400010041FFC1104110011C011300E0C0004FC
:102F500000000E1C11041084108410441C38000062
:102F60001800100010041FFC1004100018000000CE
:102F700010001FF810040004000410041FF81000D3
:102F800010001E0011E0001C007013801C001000D7
:102F90001FC0103C00E01F0000E0103C1FC00000FC
:102FA0001004180C163401C001C01634180C10049B
:102FB00010001C00130400FC13041C00100000008F
:102FC0000804101C1064108413041C041018000062
:102FD0000000000000007FFE4002400240020000AE
:102FE000000030000C0003800060001C00030000A3
:102FF00000004002400240027FFE0000000000008E
:1030000000000000200040004000400020000000C0
:1030100000010001000100010001000100010001A8
:103020000000400040002000000000000000000000
:1030300000000098012401440144014400FC000404
:1030400010001FFC008801040104008800700000CB
:1030500000000070008801040104010400880000E1
:103060000000007000880104010411081FFC000426
:10307000000000F8014401440144014400C800007C
:103080000000010401040FFC1104110411001800D8
:10309000000000D601290129012901C9010600000B
:1030A00010041FFC008401000100010400FC000466
:1030B00000000104190419FC0004000400000000D1
:1030C0000000000300010101190119FE00000000C9
:1030D00010041FFC0024004001B4010C0104000096
:1030E0000000100410041FFC000400040000000095
:1030F000010401FC0104010001FC0104010000FCC9
:10310000010401FC008401000100010400FC000432
:10311000000000F8010401040104010400F80000AB
:10312000010101FF00850104010400880070000016
:1031300000000070008801040104010501FF000186
:103140000104010401FC008401040100018000006D
:10315000000000CC01240124012401240198000076
:1031600000000100010007F8010401040000000054
:10317000010001F8000400040004010801FC00043F
:10318000010001800170000C00100160018001004D
:1031900001F0010C003001C00030010C01F0010011
:1031A00000000104018C00740170018C0104000016
:1031B000010101810171000E001801600180010010
:1031C00000000184010C013401440184010C000061
:1031D000000000000000000001003EFC4002400230
:1031E0000000000000000000FFFF000000000000E1
:1031F0000000400240023EFC010000000000000010
:10320000000060008000800040004000200020009E
:1032100000000000000000000000000000000000AE
:10322000000000000000000000000000000000009E
:10323000000000000000000000000000000000008E
:103240000000000F80380FFE380F803800000000AB
:10325000000000000000000000000000000001006D
:10326000000600000C0000380000310000060000DD
:103270000C000038000030000000000000000000DA
:1032800061800067F807F98000618000618000615B
:10329000800061800067F807F9800061800000000D
:1032A00000000000000001C0E003E0F00630080468
:1032B00018081FFFFE040E080787F00381E00000D6
:1032C0000000000001F000060C00040408060C7069
:1032D00001F9C0000E00003BE000EC1807080804EC
:1032E0000C180003E00000000001E00007F003F804
:1032F00018041C0804170807E1D003C0E00023B03D
:10330000003C080020080000100000000000000140
:1033100000003100003200001C000000000000002E
:10332000000000000000000000000000000000009D
:10333000000000000000000000000000000000008D
:103340007F0001FFC00780F00C001810000420006F
:10335000020000000000002000021000040C001811
:103360000780F001FFC0007F0000000000000000A7
:1033700000000000000000000000000042000066A5
:1033800000006600003C0000180003FFC0001800A9
:10339000003C0000660000660000420000000000E3
:1033A000080000080000080000080000080001FFF5
:1033B000C000080000080000080000080000080025
:1033C00000000000000100003100003200001C007D
:1033D00000000000000000000000000000000000ED
:1033E00000000000000000000800000800000800C5
:1033F00000080000080000080000080000080000A5
:1034000008000008000000000000000000000000AC
:103410003800003800003800000000000000000004
:10342000000000000000000000000000000000009C
:10343000000600001C000070000180000E00003833
:103440000000C0000700001C000030000000000069
:10345000000000007F8001FFE00380700600180478
:10346000000804000806001803807001FFE0007FD8
:1034700080000000000000000000010008010008BA
:1034800001000803FFF807FFF8000008000008002B
:10349000000800000000000000000001C03802C069
:1034A00058040098040118040218040418061C1893
:1034B00003F81801E0F8000000000000000000011F
:1034C000C0E003C0F0040008040808040808061857
:1034D0000803F41801E7F00001E00000000000001C
:1034E000000000000300000D00001100006100005A
:1034F000810803010807FFF80FFFF8000108000129
:10350000080000000000000000E007FCD0060808EA
:10351000061008061008061008061838060FF006F0
:1035200007C0000000000000000000003F8001FF15
:10353000E00384300208180410080410080410087E
:10354000071810030FF00007C00000000000000083
:10355000000003C0000700000600000600F8060790
:10356000F806180006E00007000006000000000052
:1035700000000001E1E003F7F0063410041808042D
:103580001808040C08040C0806161803F3F001C10F
:10359000E000000000000000F80003FC30030638E3
:1035A0000402080402080402080404100308F001DD
:1035B000FFC0007F000000000000000000000000CD
:1035C0000000000000000000703800703800703803
:1035D00000000000000000000000000000000000EB
:1035E000000000000000000000000000301A003061
:1035F0001C000000000000000000000000000000AF
:10360000000000000000000800001400002200007C
:1036100041000080800100400200200400100800EA
:10362000080000000000000021000021000021002F
:1036300000210000210000210000210000210000E5
:103640002100002100000000000000000000080030
:1036500008040010020020010040008080004100AA
:103660000022000014000008000000000000000319
:10367000C00004C000040000080038080F38080823
:10368000380810000C300007E00003C00000000004
:10369000000000003F8000FFE0038070020F100672
:1036A000708804C088048308047F8802C0900301E6
:1036B0002000FE400000080000180001F8003E084D
:1036C00001C20007020007E20000FE00001FC80060
:1036D00001F800003800000804000807FFF807FFA1
:1036E000F80408080408080408080408080618086C
:1036F00003F41801E7F00001E00000000000000002
:103700003F8001FFE00380700200180400080400FD
:10371000080400080400100600200780C000000014
:1037200004000807FFF807FFF80400080400080475
:10373000000804001802001003807001FFE0007F01
:103740008000000004000807FFF807FFF8040808DD
:10375000040808040808040808043E0804000806D1
:10376000001801006000000004000807FFF807FFD0
:10377000F8040808040800040800040800043E00D7
:1037800006000006000001800000000000000000AC
:103790003F8001FFE0038070060018040008040267
:1037A000080402080203F00783F000020000020090
:1037B00004000807FFF807FFF804080800080000E5
:1037C000080000080000080004080807FFF807FFC9
:1037D000F8040008000000000000040008040008CD
:1037E00004000807FFF807FFF804000804000804B5
:1037F00000080000000000000000000000060000BB
:103800000700000104000104000104000307FFFE9B
:1038100007FFFC0400000400000400000400080787
:10382000FFF807FFF8040C08001800003E0004C76A
:10383000800503C80600F8040038040018000008DA
:1038400004000807FFF807FFF8040008000008005C
:103850000008000008000008000008000018000030
:103860006000000004000807FFF807800807FC005C
:10387000007FC00003F80007C00078000780080739
:10388000FFF807FFF804000804000807FFF8070026
:103890000803C00000E000003800001E0000070020
:1038A0000001C00400F007FFF80400000000000061
:1038B0007F8001FFE0038070060018040008040008
:1038C0000806001803003001FFE0007F80000000C0
:1038D00004000807FFF807FFF804040804040004C4
:1038E0000400040400040400060C0003F80001F0C6
:1038F00000000000000000007F8001FFE0038070F6
:103900000600880400880400C806003C03003E014D
:10391000FFE6007F8400000004000807FFF807FFAF
:10392000F8040808040800040C00040F00040BC08D
:103930000610F003F03801E0080000080000000164
:10394000E0F803F030063010041808041808040CDE
:1039500008040C080206180207F00781E0000000C6
:1039600001800006000004000004000004000807B5
:10397000FFF807FFF8040008040000040000060038
:103980000001800004000007FFE007FFF0040018BA
:1039900000000800000800000800000800000804FB
:1039A000001007FFE004000004000006000007E02C
:1039B0000007FE00041FE00001F80000380001E0ED
:1039C000043E0007C00006000004000004000007D9
:1039D000E00007FFC0041FF80007C007F80007FF5A
:1039E00080043FF80007C004F8000700000400004E
:1039F00000000004000806001807C07805F1C800A0
:103A00003E00001F800463E80780F80600180400E9
:103A10000800000004000006000007800007E0081E
:103A2000047C08001FF80007F800180804E00807E5
:103A3000000006000004000000000001000806006D
:103A4000380400F80403E8040F08047C0805F008B3
:103A500007C0080700180400600000000000000014
:103A600000000000000000000000003FFFFE2000FA
:103A700002200002200002200002200002000000BC
:103A800000000000000008000007000000C0000067
:103A900038000006000001C000003000000E0000E9
:103AA00001000000000000000000200002200002D1
:103AB0002000022000022000023FFFFE0000000064
:103AC00000000000000000000000000000000000F6
:103AD000000800001000003000002000003000004E
:103AE00010000008000000000000000000000100BD
:103AF00000010000010000010000010000010000C1
:103B000001000001000001000001000001000001AF
:103B10000000000000000000002000002000001055
:103B20000000100000000000000000000000000085
:103B3000000000000000000000F00019F8001B1851
:103B4000002208002608002408002410003FF80086
:103B50001FF800000800001800000004000007FF24
:103B6000F80FFFF0001818001008002008002008C7
:103B7000003018001FF0000FC0000000000000001F
:103B800007C0001FF00018300020080020080020A7
:103B900008003C08001C100000600000000000004D
:103BA0000000000007C0001FF000381800200800C7
:103BB000200800200804101007FFF80FFFF0000095
:103BC000100000000000000000000007C0001FF00F
:103BD00000123000221800220800220800320800DB
:103BE0001E10000E20000000000000002000002039
:103BF0000800200801FFF803FFF806200804200849
:103C0000042008072000030000000000000000005E
:103C1000000E000E6E001FF30031B10020B1002035
:103C2000B1003191001F13002E1E00200E00300045
:103C300000000004000807FFF80FFFF8001008005C
:103C40002000002000002008003FF8001FF80000BE
:103C5000080000000000000000000020080020080C
:103C6000002008063FF8063FF800000800000800A2
:103C7000000800000000000000000000000000003C
:103C800003000003002001002001002003063FFE86
:103C9000063FFC00000000000000000000000004DF
:103CA000000807FFF80FFFF8000188000300002F4D
:103CB000C00038F80020380020080000080000008C
:103CC00000000000000004000804000804000807C9
:103CD000FFF80FFFF80000080000080000080000CF
:103CE00000000000002008003FF8003FF800100826
:103CF000002000003FF8003FF800100800200000FE
:103D00003FF8003FF8000008000000002008003FD6
:103D1000F8003FF800100800100000200000200804
:103D2000003FF8001FF8000008000000000000003D
:103D300007C0000FF00018300030080020080020F5
:103D400008003008001830000FF00007C000000025
:103D5000000000002001003FFF003FFF00101100A5
:103D60002009002008002008003038001FF0000F54
:103D7000C00000000000000007C0001FF00038185D
:103D8000002008002008002009001011001FFF007B
:103D90003FFF000001000000002008002008002074
:103DA00008003FF8003FF80008080010080020084D
:103DB0000020000030000030000000000000000083
:103DC0000000000C78001E180033080023080021B2
:103DD000080021880021980030F0003860000000C1
:103DE00000000000200000200000200000FFF00381
:103DF000FFF8002008002008002008000030000024
:103E000000000000000000002000003FF0007FF8EC
:103E1000000018000008000008002010003FF80013
:103E20007FF00000100000000000000020000030C3
:103E300000003C00003F800023F00000780000708C
:103E4000002380003C000030000020000020000023
:103E50003C00003FE00023F80000E0002700003EA7
:103E600000003FE00021F80001E0003E00002000DB
:103E7000000000002008002008003838003E6800DC
:103E800027800003C8002CF80038380020180020D4
:103E900008000000000000002000003003003C018A
:103EA000003F830023EC000070002380003C0000F2
:103EB000200000200000000000000000000000388A
:103EC000080020380020F80023E8002F88003E0872
:103ED00000380800201800007000000000000000FA
:103EE00000000000000000000000000008000014B6
:103EF000001FF7FC30000620000200000000000058
:103F000000000000000000000000000000000000B1
:103F10000000FFFFFF0000000000000000000000A4
:103F20000000000000000000000020000230000639
:103F30001FF7FC0014000008000000000000000053
:103F400000000000000000000000001800006000F9
:103F500000400000400000200000100000080000A9
:103F60000400000400000C0000100000000000002D
:103F70000000000001020304060708090000000019
:103F800001020304A43F00080000002024000000F8
:103F9000201B0008C83F0008240000200405000082
:103FA000301B0008000000000000000000000000BE
:103FB00000000000000000001000000001000000F0
:083FC0000024F40000000000E1
:040000050800018965
:00000001FF
